377844377844         04/27/2024 08:50:31               CHECK1         ShippingMgr    04_27                                  00000                   0000020002040000000204        111111111111                                                                                                                                                                                                                                                                                                                                                                                                                                                                                                                                                                                                                                                                                                                                                   X

37784400000101000000377844              000000000000000000000BV CONTINUING CARE CENTER LTD CO DBA BON8595 MEDICAL CENTER BLVD                                                                                                                                                                                00000000000                                                                                                                                                                                                                                                                                                                                                                 000000                                                                                                                                                      X
37784400000201000000377844              000000000000000000000ALLIANCE THERAPY SERVICES               3560 DELAWARE                           STE 311                                                                                                                                                         00000000000                                                                                                                                                                                                                                                                                                                                                                 000000                                                                                                                                                      X
37784400000301000000377844              000000000000000000000NO PLACE LIKE HOME LLC                  4524 BOAT CLUB RD.,STE 158                                                                                                                                                                              00000000000                                                                                                                                                                                                                                                                                                                                                                 000000                                                                                                                                                      X
37784400000401000000377844              000000000000000000000INKED OFFICE SOLUTIONS                  7214 HWY 78, SUITE # 4                                                                                                                                                                                  00000000000                                                                                                                                                                                                                                                                                                                                                                 000000                                                                                                                                                      X
37784400000501000000377844              000000000000000000000GLEN ROSE I ENTERPRISES LLC DBA CHEROKEE203 GIBBS BLVD                                                                                                                                                                                          00000000000                                                                                                                                                                                                                                                                                                                                                                 000000                                                                                                                                                      X
37784400000601000000377844              000000000000000000000HAMILTON COUNTY HOSPITAL DISTRICT DBA BU221 BEDFORD RD, STE 200                                                                                                                                                                                 00000000000                                                                                                                                                                                                                                                                                                                                                                 000000                                                                                                                                                      X
37784400000701000000377844              000000000000000000000LCS-PHC LLC                             2600 PARKVIEW LN                                                                                                                                                                                        00000000000                                                                                                                                                                                                                                                                                                                                                                 000000                                                                                                                                                      X
37784400000801000000377844              000000000000000000000NO PLACE LIKE HOME LLC                  4524 BOAT CLUB RD.,STE 158                                                                                                                                                                              00000000000                                                                                                                                                                                                                                                                                                                                                                 000000                                                                                                                                                      X
37784400000901000000377844              000000000000000000000HALTOM OPERATIONS LLC DBA LIFE CARE CENT2936 MARKUM DRIVE                                                                                                                                                                                       00000000000                                                                                                                                                                                                                                                                                                                                                                 000000                                                                                                                                                      X
37784400001001000000377844              000000000000000000000DYNAMIC ACCESS LLC                      2600 N CENTRAL EXPY, STE 280                                                                                                                                                                            00000000000                                                                                                                                                                                                                                                                                                                                                                 000000                                                                                                                                                      X
37784400001101000000377844              000000000000000000000THE HORTI-CULTURE, LLC                  8743 HIGHTOWER TRL                                                                                                                                                                                      00000000000                                                                                                                                                                                                                                                                                                                                                                 000000                                                                                                                                                      X
37784400001201000000377844              000000000000000000000ESSENCE CLEANING SERVICE, LLC           1469 ROODS LAKE RD                                                                                                                                                                                      00000000000                                                                                                                                                                                                                                                                                                                                                                 000000                                                                                                                                                      X
37784400001301000000377844              000000000000000000000QUEST DIAGNOSTICS LLC (IL)              13001 COLL CTR DR                                                                                                                                                                                       00000000000                                                                                                                                                                                                                                                                                                                                                                 000000                                                                                                                                                      X
37784400001401000000377844              000000000000000000000MD ENTERPRISES, PLLC DBA AMD URGENT CARE1477 S. STATE RD                                                                                                                                                                                        00000000000                                                                                                                                                                                                                                                                                                                                                                 000000                                                                                                                                                      X
37784400001501000000377844              000000000000000000000TRILOGY HEALTHCARE OF GENESEE LLC DBA TH5370 E. BALDWIN RD                                                                                                                                                                                      00000000000                                                                                                                                                                                                                                                                                                                                                                 000000                                                                                                                                                      X
37784400001601000000377844              000000000000000000000I.M.K CLEANING SERVICES LLC             12215 JODE POINTE DR                                                                                                                                                                                    00000000000                                                                                                                                                                                                                                                                                                                                                                 000000                                                                                                                                                      X
37784400001701000000377844              000000000000000000000MOBILE MEDICAL RESPONSE INC             L-3981                                                                                                                                                                                                  00000000000                                                                                                                                                                                                                                                                                                                                                                 000000                                                                                                                                                      X
37784400001801000000377844              000000000000000000000RAPID RESPONSE EMERGENCY SERVICES       1872 RELIABLE PKWY                                                                                                                                                                                      00000000000                                                                                                                                                                                                                                                                                                                                                                 000000                                                                                                                                                      X
37784400001901000000377844              000000000000000000000BELLE FOUNTAIN N&R CENTER INC           18591 QUARRY RD.                                                                                                                                                                                        00000000000                                                                                                                                                                                                                                                                                                                                                                 000000                                                                                                                                                      X
37784400002001000000377844              000000000000000000000LIFELINE CONCORD LLC                    3737 CHASE AVE                                                                                                                                                                                          00000000000                                                                                                                                                                                                                                                                                                                                                                 000000                                                                                                                                                      X
37784400002101000000377844              000000000000000000000TOWNSHIP OF NORTHVILLE                  ATTN: LEVEL ONE BANK                    20550 HAGGERTY ROAD                                                                                                                                             00000000000                                                                                                                                                                                                                                                                                                                                                                 000000                                                                                                                                                      X
37784400002201000000377844              000000000000000000000GREENWAY CLEANING SERVICES LLC          26501 PRINCETON ST                                                                                                                                                                                      00000000000                                                                                                                                                                                                                                                                                                                                                                 000000                                                                                                                                                      X
37784400002301000000377844              000000000000000000000TRANS-CARE AMBULANCE                    1299 E VOORHEES ST                                                                                                                                                                                      00000000000                                                                                                                                                                                                                                                                                                                                                                 000000                                                                                                                                                      X
37784400002401000000377844              000000000000000000000TRINITY AMBULANCE SERVICE INC           5741 S STATE ROAD 61                                                                                                                                                                                    00000000000                                                                                                                                                                                                                                                                                                                                                                 000000                                                                                                                                                      X
37784400002501000000377844              000000000000000000000ST VINCENT EVANSVILLE HOSPITAL          5927 RELIABLE PKWY                                                                                                                                                                                      00000000000                                                                                                                                                                                                                                                                                                                                                                 000000                                                                                                                                                      X
37784400002601000000377844              000000000000000000000BTX KOI INC DBA BIOTECH X-RAY           420 3RD ST, STE 4                                                                                                                                                                                       00000000000                                                                                                                                                                                                                                                                                                                                                                 000000                                                                                                                                                      X
37784400002701000000377844              000000000000000000000PERRY COUNTY MEMORIAL HOSPITAL          8885 STATE ROAD 237                                                                                                                                                                                     00000000000                                                                                                                                                                                                                                                                                                                                                                 000000                                                                                                                                                      X
37784400002801000000377844              000000000000000000000GOOD SAMARITAN HOSPITAL                 520 SOUTH SEVENTH STREET                ATTN: GSS-VINCENNES                                                                                                                                             00000000000                                                                                                                                                                                                                                                                                                                                                                 000000                                                                                                                                                      X
37784400002901000000377844              000000000000000000000CLEANING CONCEPTS INC.                  3833 ELIZABETH CT.                                                                                                                                                                                      00000000000                                                                                                                                                                                                                                                                                                                                                                 000000                                                                                                                                                      X
37784400003001000000377844              000000000000000000000PIKE COUNTY EMERGENCY MEDICA            798 E. ILLINOIS ST.                                                                                                                                                                                     00000000000                                                                                                                                                                                                                                                                                                                                                                 000000                                                                                                                                                      X
37784400003101000000377844              000000000000000000000HANCOCK REGIONAL HOSPITAL DBA MORRISON W4100 N MORRISON RD                                                                                                                                                                                      00000000000                                                                                                                                                                                                                                                                                                                                                                 000000                                                                                                                                                      X
37784400003201000000377844              000000000000000000000PHYSICIANS AMBULANCE SERVICE OF INDIANA 3305 NICHOL AVE                                                                                                                                                                                         00000000000                                                                                                                                                                                                                                                                                                                                                                 000000                                                                                                                                                      X
37784400003301000000377844              000000000000000000000PUTNAM COUNTY HOSPITAL DBA ELWOOD H&L NU2300 PARKVIEW LN                                                                                                                                                                                        00000000000                                                                                                                                                                                                                                                                                                                                                                 000000                                                                                                                                                      X
37784400003401000000377844              000000000000000000000BTX KOI INC DBA BIOTECH X-RAY           420 3RD ST, STE 4                                                                                                                                                                                       00000000000                                                                                                                                                                                                                                                                                                                                                                 000000                                                                                                                                                      X
37784400003501000000377844              000000000000000000000BEAUMONT REHABILITATION AND HEALTHCARE C1345 N MADISON AVE                                                                                                                                                                                      00000000000                                                                                                                                                                                                                                                                                                                                                                 000000                                                                                                                                                      X
37784400003601000000377844              000000000000000000000MAJOR HOSPITAL DBA APERION CARE MARION  614 W 14TH ST                                                                                                                                                                                           00000000000                                                                                                                                                                                                                                                                                                                                                                 000000                                                                                                                                                      X
37784400003701000000377844              000000000000000000000BERGER AND BURROW ENTERPRISES, INC DBA D6015 STAPLES MILL RD                                                                                                                                                                                    00000000000                                                                                                                                                                                                                                                                                                                                                                 000000                                                                                                                                                      X
37784400003801000000377844              000000000000000000000APRIA HEALTHCARE LLC DBA STAR MEDICAL RX2500 SOLUTIONS CENTER                                                                                                                                                                                   00000000000                                                                                                                                                                                                                                                                                                                                                                 000000                                                                                                                                                      X
37784400003901000000377844              000000000000000000000ADAMS COUNTY MEMORIAL HOSPITAL DBA SACRE515 N MAIN ST                                                                                                                                                                                           00000000000                                                                                                                                                                                                                                                                                                                                                                 000000                                                                                                                                                      X
37784400004001000000377844              000000000000000000000DUPONT HOSPITAL LLC                     15682 COLLECTIONS CTR DR                                                                                                                                                                                00000000000                                                                                                                                                                                                                                                                                                                                                                 000000                                                                                                                                                      X
37784400004101000000377844              000000000000000000000BLUFFTON HEALTH SYSTEM LLC DBA BLUFFTON 15679 COLLECTION CTR DR                                                                                                                                                                                 00000000000                                                                                                                                                                                                                                                                                                                                                                 000000                                                                                                                                                      X
37784400004201000000377844              000000000000000000000IOM HELATH SYSTEM LP DBA LUTHERAN HOSPIT15691 COLLECTIONS CTR DR                                                                                                                                                                                00000000000                                                                                                                                                                                                                                                                                                                                                                 000000                                                                                                                                                      X
37784400004301000000377844              000000000000000000000TRANS-CARE AMBULANCE                    1299 E VOORHEES ST                                                                                                                                                                                      00000000000                                                                                                                                                                                                                                                                                                                                                                 000000                                                                                                                                                      X
37784400004401000000377844              000000000000000000000WAYNE TOWNSHIP AMBULANCE SERVICE        700 NORTH SCHOOL RD                                                                                                                                                                                     00000000000                                                                                                                                                                                                                                                                                                                                                                 000000                                                                                                                                                      X
37784400004501000000377844              000000000000000000000BERGER AND BURROW ENTERPRISES, INC DBA D6015 STAPLES MILL RD                                                                                                                                                                                    00000000000                                                                                                                                                                                                                                                                                                                                                                 000000                                                                                                                                                      X
37784400004601000000377844              000000000000000000000HANCOCK REGIONAL HOSP DBA WELLBROOKE OF 52565 INDIANA 933                                                                                                                                                                                       00000000000                                                                                                                                                                                                                                                                                                                                                                 000000                                                                                                                                                      X
37784400004701000000377844              000000000000000000000TRI-COUNTY AMBULANCE SERVICE, INC       615 NELSON PARKWAY                                                                                                                                                                                      00000000000                                                                                                                                                                                                                                                                                                                                                                 000000                                                                                                                                                      X
37784400004801000000377844              000000000000000000000MEMORIAL HOSPITAL                       1101 MICHIGAN AVE                                                                                                                                                                                       00000000000                                                                                                                                                                                                                                                                                                                                                                 000000                                                                                                                                                      X
37784400004901000000377844              000000000000000000000LA PORTE HOSPITAL COMPANY LLC DBA LA POR33372 COLLECTION CENTER DR                                                                                                                                                                              00000000000                                                                                                                                                                                                                                                                                                                                                                 000000                                                                                                                                                      X
37784400005001000000377844              000000000000000000000WARSAW HEALTH SYSTEM LLC DBA KOSCIUSKO C13683 COLLECTIONS CTR DR                                                                                                                                                                                00000000000                                                                                                                                                                                                                                                                                                                                                                 000000                                                                                                                                                      X
37784400005101000000377844              000000000000000000000TRI-COUNTY AMBULANCE SERVICE, INC       615 NELSON PARKWAY                                                                                                                                                                                      00000000000                                                                                                                                                                                                                                                                                                                                                                 000000                                                                                                                                                      X
37784400005201000000377844              000000000000000000000HANCOCK REGIONAL HOSPITAL DBA THE MAPLES1332 WATERFORD CIRCLE                                                                                                                                                                                   00000000000                                                                                                                                                                                                                                                                                                                                                                 000000                                                                                                                                                      X
37784400005301000000377844              000000000000000000000ST. CHARLES HEALTH CAMPUS               3150 ST. CHARLES STREET                                                                                                                                                                                 00000000000                                                                                                                                                                                                                                                                                                                                                                 000000                                                                                                                                                      X
37784400005401000000377844              000000000000000000000DAVIESS COUNTY HOSPITAL DBA THE VILLAGES1694 TROY RD                                                                                                                                                                                            00000000000                                                                                                                                                                                                                                                                                                                                                                 000000                                                                                                                                                      X
37784400005501000000377844              000000000000000000000TRI-COUNTY AMBULANCE SERVICE, INC       615 NELSON PARKWAY                                                                                                                                                                                      00000000000                                                                                                                                                                                                                                                                                                                                                                 000000                                                                                                                                                      X
37784400005601000000377844              000000000000000000000LA PORTE HOSPITAL COMPANY LLC DBA LA POR33372 COLLECTION CENTER DR                                                                                                                                                                              00000000000                                                                                                                                                                                                                                                                                                                                                                 000000                                                                                                                                                      X
37784400005701000000377844              000000000000000000000METHODIST HOSPITALS INC DBA METHODIST SO27383 NETWORK PLACE                                                                                                                                                                                     00000000000                                                                                                                                                                                                                                                                                                                                                                 000000                                                                                                                                                      X
37784400005801000000377844              000000000000000000000HENDRICKS COUNTY HOSP DBA TERRACE CARE C1900 ANDREW AVE                                                                                                                                                                                         00000000000                                                                                                                                                                                                                                                                                                                                                                 000000                                                                                                                                                      X
37784400005901000000377844              000000000000000000000PORTER REGIONAL HOSPITAL                15708 COLLECTIONS CTR DR                                                                                                                                                                                00000000000                                                                                                                                                                                                                                                                                                                                                                 000000                                                                                                                                                      X
37784400006001000000377844              000000000000000000000KEVIN L SELBY DBA MAN MAIDS             2320 CHICAGO ST APT 201                                                                                                                                                                                 00000000000                                                                                                                                                                                                                                                                                                                                                                 000000                                                                                                                                                      X
37784400006101000000377844              000000000000000000000COMAIER SERVICES INC                    111 E COLUMBIA ST                                                                                                                                                                                       00000000000                                                                                                                                                                                                                                                                                                                                                                 000000                                                                                                                                                      X
37784400006201000000377844              000000000000000000000WILLIAMS BROS. HEALTH CARE PHARMACY INC.IV DEPT-WASHINGTON                      4 WILLIAMS BROS DR.                                                                                                                                             00000000000                                                                                                                                                                                                                                                                                                                                                                 000000                                                                                                                                                      X
37784400006301000000377844              000000000000000000000GOOD SAMARITAN HOSPITAL DBA THE TERRACE 1701 MCDOWELL ROAD                                                                                                                                                                                      00000000000                                                                                                                                                                                                                                                                                                                                                                 000000                                                                                                                                                      X
37784400006401000000377844              000000000000000000000PAULS PHARMACY INC DBA PAULS LTC PHARMAC4111 NORTH ST, JOSEPH AVE                                                                                                                                                                               00000000000                                                                                                                                                                                                                                                                                                                                                                 000000                                                                                                                                                      X
37784400006501000000377844              000000000000000000000BEN BUSH LANDSCAPES INC                 4899 VANN RD UNIT B                                                                                                                                                                                     00000000000                                                                                                                                                                                                                                                                                                                                                                 000000                                                                                                                                                      X
37784400006601000000377844              000000000000000000000AUDACY OPERATIONS INC.                  1800 PEMBROOK DR, STE 400                                                                                                                                                                               00000000000                                                                                                                                                                                                                                                                                                                                                                 000000                                                                                                                                                      X
37784400006701000000377844              000000000000000000000AUDACY OPERATIONS INC.                  1800 PEMBROOK DR, STE 400                                                                                                                                                                               00000000000                                                                                                                                                                                                                                                                                                                                                                 000000                                                                                                                                                      X
37784400006801000000377844              000000000000000000000MYRTLE SPRINGS HEALTHCARE INC DBA BEACON6700 HERITAGE PKWY                                                                                                                                                                                      00000000000                                                                                                                                                                                                                                                                                                                                                                 000000                                                                                                                                                      X
37784400006901000000377844              000000000000000000000NEXION HEALTH AT PILOT POINT INC DBA CED6937 WARFIELD AVE                                                                                                                                                                                       00000000000                                                                                                                                                                                                                                                                                                                                                                 000000                                                                                                                                                      X
37784400007001000000377844              000000000000000000000DETON I ENTERPRISES LLC DBA COTTONWOOD N2224 N CARROLL BLVD                                                                                                                                                                                     00000000000                                                                                                                                                                                                                                                                                                                                                                 000000                                                                                                                                                      X
37784400007101000000377844              000000000000000000000PMG OPCO - ROCKWALL LLC DBA BROADMOOR ME5242 MEDICAL DR                                                                                                                                                                                         00000000000                                                                                                                                                                                                                                                                                                                                                                 000000                                                                                                                                                      X
37784400007201000000377844              000000000000000000000COLLINWOOD NURSING AND REHAB            3100 S RIGSBEE DRIVE                                                                                                                                                                                    00000000000                                                                                                                                                                                                                                                                                                                                                                 000000                                                                                                                                                      X
37784400007301000000377844              000000000000000000000DALLAS COUNTY HOSPITAL DISTRICT DBA EDGE1101 WINDBELL DRIVE                                                                                                                                                                                     00000000000                                                                                                                                                                                                                                                                                                                                                                 000000                                                                                                                                                      X
37784400007401000000377844              000000000000000000000VIRIDIAN PLANTSCAPES                    3407 KAY ST.                                                                                                                                                                                            00000000000                                                                                                                                                                                                                                                                                                                                                                 000000                                                                                                                                                      X
37784400007501000000377844              000000000000000000000WEST WHARTON COUNTY HOSPITAL DISTRICT DB205 NORTH BONNIE BRAE ST                                                                                                                                                                                00000000000                                                                                                                                                                                                                                                                                                                                                                 000000                                                                                                                                                      X
37784400007601000000377844              000000000000000000000WEST WHARTON COUNTY HOSPITAL DISTRICT DB206 STORRS ST                                                                                                                                                                                           00000000000                                                                                                                                                                                                                                                                                                                                                                 000000                                                                                                                                                      X
37784400007701000000377844              000000000000000000000WEST WHARTON COUNTY HOSPITAL DISTRICT DB2244 BRINKER RD                                                                                                                                                                                         00000000000                                                                                                                                                                                                                                                                                                                                                                 000000                                                                                                                                                      X
37784400007801000000377844              000000000000000000000NEXION HEALTH AT TERRELL INC DBA TERRELL204 WEST NASH ST                                                                                                                                                                                        00000000000                                                                                                                                                                                                                                                                                                                                                                 000000                                                                                                                                                      X
37784400007901000000377844              000000000000000000000GO OPERATIONS 6 LLC DBA THE RESERVE AT R1610 RICHARDSON DR                                                                                                                                                                                      00000000000                                                                                                                                                                                                                                                                                                                                                                 000000                                                                                                                                                      X
37784400008001000000377844              000000000000000000000STONEMERE REHABILITATION CENTER         11855 LEBANON ROAD                                                                                                                                                                                      00000000000                                                                                                                                                                                                                                                                                                                                                                 000000                                                                                                                                                      X
37784400008101000000377844              000000000000000000000EASTLAND MEMORIAL HOSPITAL DISTRICT DBA 2231 US HWY 80 E                                                                                                                                                                                        00000000000                                                                                                                                                                                                                                                                                                                                                                 000000                                                                                                                                                      X
37784400008201000000377844              000000000000000000000DALLAS COUNTY HOSPITAL DISTRICT DBA PRAI1350 MAIN STREET                                                                                                                                                                                        00000000000                                                                                                                                                                                                                                                                                                                                                                 000000                                                                                                                                                      X
37784400008301000000377844              000000000000000000000OAK POINT HEALTHCARE INC DBA THE HEALTHC3325 W PLANO PKWY                                                                                                                                                                                       00000000000                                                                                                                                                                                                                                                                                                                                                                 000000                                                                                                                                                      X
37784400008401000000377844              000000000000000000000FANNIN COUNTY HOSPTIAL AUTHORITY DBA FOU721 S. HWY 78                                                                                                                                                                                           00000000000                                                                                                                                                                                                                                                                                                                                                                 000000                                                                                                                                                      X
37784400008501000000377844              000000000000000000000FANNIN COUNTY HOSPITAL AUTHORITY DBA NOR1720 N MCDONALD ST.                     ATTN: ACCOUNTS RECEIVABLE                                                                                                                                       00000000000                                                                                                                                                                                                                                                                                                                                                                 000000                                                                                                                                                      X
37784400008601000000377844              000000000000000000000HAMILTON COUNTY HOSPITAL DISTRICT DBA PA1801 PEARSON AVENUE                                                                                                                                                                                     00000000000                                                                                                                                                                                                                                                                                                                                                                 000000                                                                                                                                                      X
37784400008701000000377844              000000000000000000000MOONFLOWER HEALTHCARE INC DBA MCKINNEY H253 ENTERPRISE DR                                                                                                                                                                                       00000000000                                                                                                                                                                                                                                                                                                                                                                 000000                                                                                                                                                      X
37784400008801000000377844              000000000000000000000WEST WHARTON COUNTY HOSPITAL DISTRICT DB104 ENTERPRISE AVE                                                                                                                                                                                      00000000000                                                                                                                                                                                                                                                                                                                                                                 000000                                                                                                                                                      X
37784400008901000000377844              000000000000000000000PEARSALL NURSING AND REHAB              169 MEDICAL DR.                                                                                                                                                                                         00000000000                                                                                                                                                                                                                                                                                                                                                                 000000                                                                                                                                                      X
37784400009001000000377844              000000000000000000000FANNIN COUNTY HOSPITAL AUTHORITY DBA TEX1000 US HWY 82 EAST                                                                                                                                                                                     00000000000                                                                                                                                                                                                                                                                                                                                                                 000000                                                                                                                                                      X
37784400009101000000377844              000000000000000000000DALLAS COUNTY HOSPITAL DISTRICT DBA BEAC3515 S PARK AVE                                                                                                                                                                                         00000000000                                                                                                                                                                                                                                                                                                                                                                 000000                                                                                                                                                      X
37784400009201000000377844              000000000000000000000WEST WHARTON COUNTY HOSPITAL DISTRICT DB1303 EAST MAIN ST                                                                                                                                                                                       00000000000                                                                                                                                                                                                                                                                                                                                                                 000000                                                                                                                                                      X
37784400009301000000377844              000000000000000000000DENISON LONG TERM CARE LLC DBA WOODLANDS5600 WOODLANDS TRAIL,                                                                                                                                                                                   00000000000                                                                                                                                                                                                                                                                                                                                                                 000000                                                                                                                                                      X
37784400009401000000377844              000000000000000000000WEST WHARTON COUNTY HOSPITAL DISTRICT DB105 NORTH MAIN ST                                                                                                                                                                                       00000000000                                                                                                                                                                                                                                                                                                                                                                 000000                                                                                                                                                      X
37784400009501000000377844              000000000000000000000DECATUR HOSPITAL AUTHORITY DBA RENAISSAN1400 BLACK HILL DR                                                                                                                                                                                      00000000000                                                                                                                                                                                                                                                                                                                                                                 000000                                                                                                                                                      X
37784400009601000000377844              000000000000000000000GO OPERATIONS 7 LLC DBA CEDAR HOLLOW REH5011 N US HWY 75                                                                                                                                                                                        00000000000                                                                                                                                                                                                                                                                                                                                                                 000000                                                                                                                                                      X
37784400009701000000377844              000000000000000000000DALLAS COUNTY HOSPITAL DISTRICT DBA THE 1300 MEMORIAL DRIVE                                                                                                                                                                                     00000000000                                                                                                                                                                                                                                                                                                                                                                 000000                                                                                                                                                      X
37784400009801000000377844              000000000000000000000PM MANAGEMENT DENISON NC LLC DBA THE HOM1101 REBA MCENTIRE LN                                                                                                                                                                                   00000000000                                                                                                                                                                                                                                                                                                                                                                 000000                                                                                                                                                      X
37784400009901000000377844              000000000000000000000LANCASTER LTC  PARTNERS INC DBA LANCASTE1515 N ELM ST                                                                                                                                                                                           00000000000                                                                                                                                                                                                                                                                                                                                                                 000000                                                                                                                                                      X
37784400010001000000377844              000000000000000000000DUNCANVILLE NURSING AND REHABILITATION  419 S. COCKERLL HILL RD.                                                                                                                                                                                00000000000                                                                                                                                                                                                                                                                                                                                                                 000000                                                                                                                                                      X
37784400010101000000377844              000000000000000000000NOCONA HOSPITAL DISTRICT DBA SKYLINE NUR3326 BURGOYNE ST                        ATTN: SHANNON WILLIAMS, BOM                                                                                                                                     00000000000                                                                                                                                                                                                                                                                                                                                                                 000000                                                                                                                                                      X
37784400010201000000377844              000000000000000000000WEST WHARTON COUNTY HOSP.DBA FIVE POINTS9009 WHITE ROCK TRAIL                                                                                                                                                                                   00000000000                                                                                                                                                                                                                                                                                                                                                                 000000                                                                                                                                                      X
37784400010301000000377844              000000000000000000000WEST WHARTON COUNTY HOSPITAL DISTRICT DB2815 MARTIN LUTHER KING JR BLVD                                                                                                                                                                         00000000000                                                                                                                                                                                                                                                                                                                                                                 000000                                                                                                                                                      X
37784400010401000000377844              000000000000000000000LE REVE REHAB & MC LLC                  3309 DILIDO RD                                                                                                                                                                                          00000000000                                                                                                                                                                                                                                                                                                                                                                 000000                                                                                                                                                      X
37784400010501000000377844              000000000000000000000DALLAS COUNTY HOSP DIST DBA LAKEWEST REH2450 BICKERS ST                                                                                                                                                                                         00000000000                                                                                                                                                                                                                                                                                                                                                                 000000                                                                                                                                                      X
37784400010601000000377844              000000000000000000000THE HIGHLANDS GUEST CARE CTR LLC        9009 FOREST LN                                                                                                                                                                                          00000000000                                                                                                                                                                                                                                                                                                                                                                 000000                                                                                                                                                      X
37784400010701000000377844              000000000000000000000DARLENE INVESTMENT GROUP TOMBALL INC DBA11820 NORTHPOINTE BLVD                                                                                                                                                                                  00000000000                                                                                                                                                                                                                                                                                                                                                                 000000                                                                                                                                                      X
37784400010801000000377844              000000000000000000000OAKBEND MEDICAL CENTER DBA PARADIGM NORT17600 CALI DR                                                                                                                                                                                           00000000000                                                                                                                                                                                                                                                                                                                                                                 000000                                                                                                                                                      X
37784400010901000000377844              000000000000000000000HALTOM OPERATIONS LLC DBA LIFE CARE CENT2936 MARKUM DRIVE                                                                                                                                                                                       00000000000                                                                                                                                                                                                                                                                                                                                                                 000000                                                                                                                                                      X
37784400011001000000377844              000000000000000000000GLENVIEW POST ACUTE LLC DBA GLENVIEW WEL7625 GLENVIEW DR                                                                                                                                                                                        00000000000                                                                                                                                                                                                                                                                                                                                                                 000000                                                                                                                                                      X
37784400011101000000377844              000000000000000000000EASTLAND MEMORIAL HOSPITAL DISTRICT DBA 4240 GOLDEN TRIANGLE BLVD                                                                                                                                                                               00000000000                                                                                                                                                                                                                                                                                                                                                                 000000                                                                                                                                                      X
37784400011201000000377844              000000000000000000000DECATUR HOSPITAL AUTHORITY DBA CITYVIEW 1908 N LAURENT, STE 250                 ATTN: CASH MANAGEMENT/HOSPICE                                                                                                                                   00000000000                                                                                                                                                                                                                                                                                                                                                                 000000                                                                                                                                                      X
37784400011301000000377844              000000000000000000000WINNIE STOWELL HOSPITAL DISTRICT DBA FOR2112 FORUM PKWY,                                                                                                                                                                                        00000000000                                                                                                                                                                                                                                                                                                                                                                 000000                                                                                                                                                      X
37784400011401000000377844              000000000000000000000GREEN VALLEY HEALTHCARE                 6850 RUFE SNOW DR.                                                                                                                                                                                      00000000000                                                                                                                                                                                                                                                                                                                                                                 000000                                                                                                                                                      X
37784400011501000000377844              000000000000000000000DECATUR HOSPITAL AUTHORITY DBA THE HARRI4600 HERITAGE TRACE PKWY                                                                                                                                                                                00000000000                                                                                                                                                                                                                                                                                                                                                                 000000                                                                                                                                                      X
37784400011601000000377844              000000000000000000000REGENT CARE OF THE WOODLANDS            CENTRAL BILLING OFFICE                  4801 NW LOOP 410, STE 520                                                                                                                                       00000000000                                                                                                                                                                                                                                                                                                                                                                 000000                                                                                                                                                      X
37784400011701000000377844              000000000000000000000OAKBEND MEDICAL CENTER DBA THE LEV AT WI1112 SMITH DR                                                                                                                                                                                           00000000000                                                                                                                                                                                                                                                                                                                                                                 000000                                                                                                                                                      X
37784400011801000000377844              000000000000000000000WINNIE-STOWELL HOSPITAL DISTRICT DBA FRI1500 SUNSET DR                                                                                                                                                                                          00000000000                                                                                                                                                                                                                                                                                                                                                                 000000                                                                                                                                                      X
37784400011901000000377844              000000000000000000000WEST WHARTON COUNTY HOSPITAL DISTRICT DB3800 ENGLEWOOD LN.                                                                                                                                                                                      00000000000                                                                                                                                                                                                                                                                                                                                                                 000000                                                                                                                                                      X
37784400012001000000377844              000000000000000000000PMG OPCO-RIDGMAR LLC DBA RIDGMAR MEDICAL6600 LANDS END CT                                                                                                                                                                                       00000000000                                                                                                                                                                                                                                                                                                                                                                 000000                                                                                                                                                      X
